{
  "contractName": "EthMarket",
  "abi": [
    {
      "inputs": [],
      "stateMutability": "nonpayable",
      "type": "constructor"
    },
    {
      "anonymous": false,
      "inputs": [
        {
          "indexed": true,
          "internalType": "address",
          "name": "owner",
          "type": "address"
        },
        {
          "indexed": true,
          "internalType": "address",
          "name": "approved",
          "type": "address"
        },
        {
          "indexed": true,
          "internalType": "uint256",
          "name": "tokenId",
          "type": "uint256"
        }
      ],
      "name": "Approval",
      "type": "event"
    },
    {
      "anonymous": false,
      "inputs": [
        {
          "indexed": true,
          "internalType": "address",
          "name": "owner",
          "type": "address"
        },
        {
          "indexed": true,
          "internalType": "address",
          "name": "operator",
          "type": "address"
        },
        {
          "indexed": false,
          "internalType": "bool",
          "name": "approved",
          "type": "bool"
        }
      ],
      "name": "ApprovalForAll",
      "type": "event"
    },
    {
      "anonymous": false,
      "inputs": [
        {
          "indexed": false,
          "internalType": "uint256",
          "name": "tokenId",
          "type": "uint256"
        },
        {
          "indexed": false,
          "internalType": "uint256",
          "name": "price",
          "type": "uint256"
        },
        {
          "indexed": false,
          "internalType": "address",
          "name": "creator",
          "type": "address"
        },
        {
          "indexed": false,
          "internalType": "bool",
          "name": "isListed",
          "type": "bool"
        }
      ],
      "name": "ItemCreated",
      "type": "event"
    },
    {
      "anonymous": false,
      "inputs": [
        {
          "indexed": true,
          "internalType": "address",
          "name": "previousOwner",
          "type": "address"
        },
        {
          "indexed": true,
          "internalType": "address",
          "name": "newOwner",
          "type": "address"
        }
      ],
      "name": "OwnershipTransferred",
      "type": "event"
    },
    {
      "anonymous": false,
      "inputs": [
        {
          "indexed": true,
          "internalType": "address",
          "name": "from",
          "type": "address"
        },
        {
          "indexed": true,
          "internalType": "address",
          "name": "to",
          "type": "address"
        },
        {
          "indexed": true,
          "internalType": "uint256",
          "name": "tokenId",
          "type": "uint256"
        }
      ],
      "name": "Transfer",
      "type": "event"
    },
    {
      "inputs": [
        {
          "internalType": "address",
          "name": "to",
          "type": "address"
        },
        {
          "internalType": "uint256",
          "name": "tokenId",
          "type": "uint256"
        }
      ],
      "name": "approve",
      "outputs": [],
      "stateMutability": "nonpayable",
      "type": "function"
    },
    {
      "inputs": [
        {
          "internalType": "address",
          "name": "owner",
          "type": "address"
        }
      ],
      "name": "balanceOf",
      "outputs": [
        {
          "internalType": "uint256",
          "name": "",
          "type": "uint256"
        }
      ],
      "stateMutability": "view",
      "type": "function",
      "constant": true
    },
    {
      "inputs": [
        {
          "internalType": "uint256",
          "name": "tokenId",
          "type": "uint256"
        }
      ],
      "name": "getApproved",
      "outputs": [
        {
          "internalType": "address",
          "name": "",
          "type": "address"
        }
      ],
      "stateMutability": "view",
      "type": "function",
      "constant": true
    },
    {
      "inputs": [
        {
          "internalType": "address",
          "name": "owner",
          "type": "address"
        },
        {
          "internalType": "address",
          "name": "operator",
          "type": "address"
        }
      ],
      "name": "isApprovedForAll",
      "outputs": [
        {
          "internalType": "bool",
          "name": "",
          "type": "bool"
        }
      ],
      "stateMutability": "view",
      "type": "function",
      "constant": true
    },
    {
      "inputs": [],
      "name": "listingPrice",
      "outputs": [
        {
          "internalType": "uint256",
          "name": "",
          "type": "uint256"
        }
      ],
      "stateMutability": "view",
      "type": "function",
      "constant": true
    },
    {
      "inputs": [],
      "name": "name",
      "outputs": [
        {
          "internalType": "string",
          "name": "",
          "type": "string"
        }
      ],
      "stateMutability": "view",
      "type": "function",
      "constant": true
    },
    {
      "inputs": [],
      "name": "owner",
      "outputs": [
        {
          "internalType": "address",
          "name": "",
          "type": "address"
        }
      ],
      "stateMutability": "view",
      "type": "function",
      "constant": true
    },
    {
      "inputs": [
        {
          "internalType": "uint256",
          "name": "tokenId",
          "type": "uint256"
        }
      ],
      "name": "ownerOf",
      "outputs": [
        {
          "internalType": "address",
          "name": "",
          "type": "address"
        }
      ],
      "stateMutability": "view",
      "type": "function",
      "constant": true
    },
    {
      "inputs": [],
      "name": "renounceOwnership",
      "outputs": [],
      "stateMutability": "nonpayable",
      "type": "function"
    },
    {
      "inputs": [
        {
          "internalType": "address",
          "name": "from",
          "type": "address"
        },
        {
          "internalType": "address",
          "name": "to",
          "type": "address"
        },
        {
          "internalType": "uint256",
          "name": "tokenId",
          "type": "uint256"
        }
      ],
      "name": "safeTransferFrom",
      "outputs": [],
      "stateMutability": "nonpayable",
      "type": "function"
    },
    {
      "inputs": [
        {
          "internalType": "address",
          "name": "from",
          "type": "address"
        },
        {
          "internalType": "address",
          "name": "to",
          "type": "address"
        },
        {
          "internalType": "uint256",
          "name": "tokenId",
          "type": "uint256"
        },
        {
          "internalType": "bytes",
          "name": "_data",
          "type": "bytes"
        }
      ],
      "name": "safeTransferFrom",
      "outputs": [],
      "stateMutability": "nonpayable",
      "type": "function"
    },
    {
      "inputs": [
        {
          "internalType": "address",
          "name": "operator",
          "type": "address"
        },
        {
          "internalType": "bool",
          "name": "approved",
          "type": "bool"
        }
      ],
      "name": "setApprovalForAll",
      "outputs": [],
      "stateMutability": "nonpayable",
      "type": "function"
    },
    {
      "inputs": [
        {
          "internalType": "bytes4",
          "name": "interfaceId",
          "type": "bytes4"
        }
      ],
      "name": "supportsInterface",
      "outputs": [
        {
          "internalType": "bool",
          "name": "",
          "type": "bool"
        }
      ],
      "stateMutability": "view",
      "type": "function",
      "constant": true
    },
    {
      "inputs": [],
      "name": "symbol",
      "outputs": [
        {
          "internalType": "string",
          "name": "",
          "type": "string"
        }
      ],
      "stateMutability": "view",
      "type": "function",
      "constant": true
    },
    {
      "inputs": [
        {
          "internalType": "uint256",
          "name": "tokenId",
          "type": "uint256"
        }
      ],
      "name": "tokenURI",
      "outputs": [
        {
          "internalType": "string",
          "name": "",
          "type": "string"
        }
      ],
      "stateMutability": "view",
      "type": "function",
      "constant": true
    },
    {
      "inputs": [
        {
          "internalType": "address",
          "name": "from",
          "type": "address"
        },
        {
          "internalType": "address",
          "name": "to",
          "type": "address"
        },
        {
          "internalType": "uint256",
          "name": "tokenId",
          "type": "uint256"
        }
      ],
      "name": "transferFrom",
      "outputs": [],
      "stateMutability": "nonpayable",
      "type": "function"
    },
    {
      "inputs": [
        {
          "internalType": "address",
          "name": "newOwner",
          "type": "address"
        }
      ],
      "name": "transferOwnership",
      "outputs": [],
      "stateMutability": "nonpayable",
      "type": "function"
    },
    {
      "inputs": [
        {
          "internalType": "uint256",
          "name": "newPrice",
          "type": "uint256"
        }
      ],
      "name": "setListingPrice",
      "outputs": [],
      "stateMutability": "nonpayable",
      "type": "function"
    },
    {
      "inputs": [
        {
          "internalType": "string",
          "name": "tokenURI",
          "type": "string"
        },
        {
          "internalType": "uint256",
          "name": "price",
          "type": "uint256"
        }
      ],
      "name": "mintToken",
      "outputs": [
        {
          "internalType": "uint256",
          "name": "",
          "type": "uint256"
        }
      ],
      "stateMutability": "payable",
      "type": "function",
      "payable": true
    },
    {
      "inputs": [
        {
          "internalType": "uint256",
          "name": "tokenId",
          "type": "uint256"
        }
      ],
      "name": "buyItem",
      "outputs": [],
      "stateMutability": "payable",
      "type": "function",
      "payable": true
    },
    {
      "inputs": [
        {
          "internalType": "string",
          "name": "tokenURI",
          "type": "string"
        }
      ],
      "name": "tokenURIExists",
      "outputs": [
        {
          "internalType": "bool",
          "name": "",
          "type": "bool"
        }
      ],
      "stateMutability": "view",
      "type": "function",
      "constant": true
    },
    {
      "inputs": [
        {
          "internalType": "uint256",
          "name": "tokenId",
          "type": "uint256"
        }
      ],
      "name": "getItem",
      "outputs": [
        {
          "components": [
            {
              "internalType": "uint256",
              "name": "tokenId",
              "type": "uint256"
            },
            {
              "internalType": "uint256",
              "name": "price",
              "type": "uint256"
            },
            {
              "internalType": "address",
              "name": "creator",
              "type": "address"
            },
            {
              "internalType": "bool",
              "name": "isListed",
              "type": "bool"
            }
          ],
          "internalType": "struct EthMarket.Item",
          "name": "",
          "type": "tuple"
        }
      ],
      "stateMutability": "view",
      "type": "function",
      "constant": true
    },
    {
      "inputs": [],
      "name": "getListenItemCount",
      "outputs": [
        {
          "internalType": "uint256",
          "name": "",
          "type": "uint256"
        }
      ],
      "stateMutability": "view",
      "type": "function",
      "constant": true
    },
    {
      "inputs": [],
      "name": "totalSupply",
      "outputs": [
        {
          "internalType": "uint256",
          "name": "",
          "type": "uint256"
        }
      ],
      "stateMutability": "view",
      "type": "function",
      "constant": true
    },
    {
      "inputs": [],
      "name": "getAllItemsOnSale",
      "outputs": [
        {
          "components": [
            {
              "internalType": "uint256",
              "name": "tokenId",
              "type": "uint256"
            },
            {
              "internalType": "uint256",
              "name": "price",
              "type": "uint256"
            },
            {
              "internalType": "address",
              "name": "creator",
              "type": "address"
            },
            {
              "internalType": "bool",
              "name": "isListed",
              "type": "bool"
            }
          ],
          "internalType": "struct EthMarket.Item[]",
          "name": "",
          "type": "tuple[]"
        }
      ],
      "stateMutability": "view",
      "type": "function",
      "constant": true
    },
    {
      "inputs": [
        {
          "internalType": "uint256",
          "name": "idx",
          "type": "uint256"
        }
      ],
      "name": "tokenByIndex",
      "outputs": [
        {
          "internalType": "uint256",
          "name": "",
          "type": "uint256"
        }
      ],
      "stateMutability": "view",
      "type": "function",
      "constant": true
    },
    {
      "inputs": [],
      "name": "getOwnedItems",
      "outputs": [
        {
          "components": [
            {
              "internalType": "uint256",
              "name": "tokenId",
              "type": "uint256"
            },
            {
              "internalType": "uint256",
              "name": "price",
              "type": "uint256"
            },
            {
              "internalType": "address",
              "name": "creator",
              "type": "address"
            },
            {
              "internalType": "bool",
              "name": "isListed",
              "type": "bool"
            }
          ],
          "internalType": "struct EthMarket.Item[]",
          "name": "",
          "type": "tuple[]"
        }
      ],
      "stateMutability": "view",
      "type": "function",
      "constant": true
    },
    {
      "inputs": [
        {
          "internalType": "uint256",
          "name": "idx",
          "type": "uint256"
        },
        {
          "internalType": "address",
          "name": "owner",
          "type": "address"
        }
      ],
      "name": "tokenOfOwnerByIndex",
      "outputs": [
        {
          "internalType": "uint256",
          "name": "",
          "type": "uint256"
        }
      ],
      "stateMutability": "view",
      "type": "function",
      "constant": true
    },
    {
      "inputs": [
        {
          "internalType": "uint256",
          "name": "tokenId",
          "type": "uint256"
        },
        {
          "internalType": "uint256",
          "name": "newPrice",
          "type": "uint256"
        }
      ],
      "name": "placeItemOnSale",
      "outputs": [],
      "stateMutability": "payable",
      "type": "function",
      "payable": true
    }
  ],
  "bytecode": "0x60806040526658d15e176280006010553480156200001c57600080fd5b506040518060400160405280600881526020017f4574684974656d730000000000000000000000000000000000000000000000008152506040518060400160405280600481526020017f4549544d000000000000000000000000000000000000000000000000000000008152508160009080519060200190620000a1929190620001b1565b508060019080519060200190620000ba929190620001b1565b505050620000dd620000d1620000e360201b60201c565b620000eb60201b60201c565b620002c6565b600033905090565b6000600760009054906101000a900473ffffffffffffffffffffffffffffffffffffffff16905081600760006101000a81548173ffffffffffffffffffffffffffffffffffffffff021916908373ffffffffffffffffffffffffffffffffffffffff1602179055508173ffffffffffffffffffffffffffffffffffffffff168173ffffffffffffffffffffffffffffffffffffffff167f8be0079c531659141344cd1fd0a4f28419497f9722a3daafe3b4186f6b6457e060405160405180910390a35050565b828054620001bf9062000290565b90600052602060002090601f016020900481019282620001e357600085556200022f565b82601f10620001fe57805160ff19168380011785556200022f565b828001600101855582156200022f579182015b828111156200022e57825182559160200191906001019062000211565b5b5090506200023e919062000242565b5090565b5b808211156200025d57600081600090555060010162000243565b5090565b7f4e487b7100000000000000000000000000000000000000000000000000000000600052602260045260246000fd5b60006002820490506001821680620002a957607f821691505b60208210811415620002c057620002bf62000261565b5b50919050565b614abb80620002d66000396000f3fe6080604052600436106101c25760003560e01c8063715018a6116100f7578063b88d4fde11610095578063e7fb74c711610064578063e7fb74c714610672578063e985e9c51461068e578063f2fde38b146106cb578063f5fbe834146106f4576101c2565b8063b88d4fde146105b1578063c046372c146105da578063c78f19f91461060a578063c87b56dd14610635576101c2565b80638da5cb5b116100d15780638da5cb5b146104f557806395d89b4114610520578063a22cb4651461054b578063a5bb827514610574576101c2565b8063715018a61461048a5780637c726b69146104a15780638cffa21c146104ca576101c2565b80633129e7731161016457806343d32ae71161013e57806343d32ae7146103965780634f6ccce7146103d35780636352211e1461041057806370a082311461044d576101c2565b80633129e7731461031457806337bf0dae1461035157806342842e0e1461036d576101c2565b8063095ea7b3116101a0578063095ea7b31461026c578063142ae03d1461029557806318160ddd146102c057806323b872dd146102eb576101c2565b806301ffc9a7146101c757806306fdde0314610204578063081812fc1461022f575b600080fd5b3480156101d357600080fd5b506101ee60048036038101906101e99190613016565b61071f565b6040516101fb919061305e565b60405180910390f35b34801561021057600080fd5b50610219610801565b6040516102269190613112565b60405180910390f35b34801561023b57600080fd5b506102566004803603810190610251919061316a565b610893565b60405161026391906131d8565b60405180910390f35b34801561027857600080fd5b50610293600480360381019061028e919061321f565b610918565b005b3480156102a157600080fd5b506102aa610a30565b6040516102b7919061326e565b60405180910390f35b3480156102cc57600080fd5b506102d5610a41565b6040516102e2919061326e565b60405180910390f35b3480156102f757600080fd5b50610312600480360381019061030d9190613289565b610a4e565b005b34801561032057600080fd5b5061033b6004803603810190610336919061316a565b610aae565b604051610348919061335e565b60405180910390f35b61036b60048036038101906103669190613379565b610b60565b005b34801561037957600080fd5b50610394600480360381019061038f9190613289565b610cdc565b005b3480156103a257600080fd5b506103bd60048036038101906103b891906134ee565b610cfc565b6040516103ca919061305e565b60405180910390f35b3480156103df57600080fd5b506103fa60048036038101906103f5919061316a565b610d38565b604051610407919061326e565b60405180910390f35b34801561041c57600080fd5b506104376004803603810190610432919061316a565b610da9565b60405161044491906131d8565b60405180910390f35b34801561045957600080fd5b50610474600480360381019061046f9190613537565b610e5b565b604051610481919061326e565b60405180910390f35b34801561049657600080fd5b5061049f610f13565b005b3480156104ad57600080fd5b506104c860048036038101906104c3919061316a565b610f9b565b005b3480156104d657600080fd5b506104df611064565b6040516104ec9190613668565b60405180910390f35b34801561050157600080fd5b5061050a6111c8565b60405161051791906131d8565b60405180910390f35b34801561052c57600080fd5b506105356111f2565b6040516105429190613112565b60405180910390f35b34801561055757600080fd5b50610572600480360381019061056d91906136b6565b611284565b005b34801561058057600080fd5b5061059b600480360381019061059691906136f6565b61129a565b6040516105a8919061326e565b60405180910390f35b3480156105bd57600080fd5b506105d860048036038101906105d391906137d7565b61133f565b005b6105f460048036038101906105ef919061385a565b6113a1565b604051610601919061326e565b60405180910390f35b34801561061657600080fd5b5061061f6114b1565b60405161062c919061326e565b60405180910390f35b34801561064157600080fd5b5061065c6004803603810190610657919061316a565b6114b7565b6040516106699190613112565b60405180910390f35b61068c6004803603810190610687919061316a565b611609565b005b34801561069a57600080fd5b506106b560048036038101906106b091906138b6565b611772565b6040516106c2919061305e565b60405180910390f35b3480156106d757600080fd5b506106f260048036038101906106ed9190613537565b611806565b005b34801561070057600080fd5b506107096118fe565b6040516107169190613668565b60405180910390f35b60007f80ac58cd000000000000000000000000000000000000000000000000000000007bffffffffffffffffffffffffffffffffffffffffffffffffffffffff1916827bffffffffffffffffffffffffffffffffffffffffffffffffffffffff191614806107ea57507f5b5e139f000000000000000000000000000000000000000000000000000000007bffffffffffffffffffffffffffffffffffffffffffffffffffffffff1916827bffffffffffffffffffffffffffffffffffffffffffffffffffffffff1916145b806107fa57506107f982611a99565b5b9050919050565b60606000805461081090613925565b80601f016020809104026020016040519081016040528092919081815260200182805461083c90613925565b80156108895780601f1061085e57610100808354040283529160200191610889565b820191906000526020600020905b81548152906001019060200180831161086c57829003601f168201915b5050505050905090565b600061089e82611b03565b6108dd576040517f08c379a00000000000000000000000000000000000000000000000000000000081526004016108d4906139c9565b60405180910390fd5b6004600083815260200190815260200160002060009054906101000a900473ffffffffffffffffffffffffffffffffffffffff169050919050565b600061092382610da9565b90508073ffffffffffffffffffffffffffffffffffffffff168373ffffffffffffffffffffffffffffffffffffffff161415610994576040517f08c379a000000000000000000000000000000000000000000000000000000000815260040161098b90613a5b565b60405180910390fd5b8073ffffffffffffffffffffffffffffffffffffffff166109b3611b6f565b73ffffffffffffffffffffffffffffffffffffffff1614806109e257506109e1816109dc611b6f565b611772565b5b610a21576040517f08c379a0000000000000000000000000000000000000000000000000000000008152600401610a1890613aed565b60405180910390fd5b610a2b8383611b77565b505050565b6000610a3c6008611c30565b905090565b6000600a80549050905090565b610a5f610a59611b6f565b82611c3e565b610a9e576040517f08c379a0000000000000000000000000000000000000000000000000000000008152600401610a9590613b7f565b60405180910390fd5b610aa9838383611d1c565b505050565b610ab6612ec7565b600c600083815260200190815260200160002060405180608001604052908160008201548152602001600182015481526020016002820160009054906101000a900473ffffffffffffffffffffffffffffffffffffffff1673ffffffffffffffffffffffffffffffffffffffff1673ffffffffffffffffffffffffffffffffffffffff1681526020016002820160149054906101000a900460ff1615151515815250509050919050565b3373ffffffffffffffffffffffffffffffffffffffff16610b8083610da9565b73ffffffffffffffffffffffffffffffffffffffff1614610bd6576040517f08c379a0000000000000000000000000000000000000000000000000000000008152600401610bcd90613beb565b60405180910390fd5b60001515600c600084815260200190815260200160002060020160149054906101000a900460ff16151514610c40576040517f08c379a0000000000000000000000000000000000000000000000000000000008152600401610c3790613c57565b60405180910390fd5b6010543414610c84576040517f08c379a0000000000000000000000000000000000000000000000000000000008152600401610c7b90613ce9565b60405180910390fd5b6001600c600084815260200190815260200160002060020160146101000a81548160ff021916908315150217905550610cbd6008611f83565b80600c6000848152602001908152602001600020600101819055505050565b610cf78383836040518060200160405280600081525061133f565b505050565b600060011515600b83604051610d129190613d45565b908152602001604051809103902060009054906101000a900460ff161515149050919050565b6000610d42610a41565b8210610d83576040517f08c379a0000000000000000000000000000000000000000000000000000000008152600401610d7a90613da8565b60405180910390fd5b600a8281548110610d9757610d96613dc8565b5b90600052602060002001549050919050565b6000806002600084815260200190815260200160002060009054906101000a900473ffffffffffffffffffffffffffffffffffffffff169050600073ffffffffffffffffffffffffffffffffffffffff168173ffffffffffffffffffffffffffffffffffffffff161415610e52576040517f08c379a0000000000000000000000000000000000000000000000000000000008152600401610e4990613e69565b60405180910390fd5b80915050919050565b60008073ffffffffffffffffffffffffffffffffffffffff168273ffffffffffffffffffffffffffffffffffffffff161415610ecc576040517f08c379a0000000000000000000000000000000000000000000000000000000008152600401610ec390613efb565b60405180910390fd5b600360008373ffffffffffffffffffffffffffffffffffffffff1673ffffffffffffffffffffffffffffffffffffffff168152602001908152602001600020549050919050565b610f1b611b6f565b73ffffffffffffffffffffffffffffffffffffffff16610f396111c8565b73ffffffffffffffffffffffffffffffffffffffff1614610f8f576040517f08c379a0000000000000000000000000000000000000000000000000000000008152600401610f8690613f67565b60405180910390fd5b610f996000611f99565b565b610fa3611b6f565b73ffffffffffffffffffffffffffffffffffffffff16610fc16111c8565b73ffffffffffffffffffffffffffffffffffffffff1614611017576040517f08c379a000000000000000000000000000000000000000000000000000000000815260040161100e90613f67565b60405180910390fd5b6000811161105a576040517f08c379a000000000000000000000000000000000000000000000000000000000815260040161105190613fd3565b60405180910390fd5b8060108190555050565b6060600061107133610e5b565b905060008167ffffffffffffffff81111561108f5761108e6133c3565b5b6040519080825280602002602001820160405280156110c857816020015b6110b5612ec7565b8152602001906001900390816110ad5790505b50905060005b828110156111bf5760006110e2823361129a565b90506000600c600083815260200190815260200160002090508060405180608001604052908160008201548152602001600182015481526020016002820160009054906101000a900473ffffffffffffffffffffffffffffffffffffffff1673ffffffffffffffffffffffffffffffffffffffff1673ffffffffffffffffffffffffffffffffffffffff1681526020016002820160149054906101000a900460ff16151515158152505084848151811061119f5761119e613dc8565b5b6020026020010181905250505080806111b790614022565b9150506110ce565b50809250505090565b6000600760009054906101000a900473ffffffffffffffffffffffffffffffffffffffff16905090565b60606001805461120190613925565b80601f016020809104026020016040519081016040528092919081815260200182805461122d90613925565b801561127a5780601f1061124f5761010080835404028352916020019161127a565b820191906000526020600020905b81548152906001019060200180831161125d57829003601f168201915b5050505050905090565b61129661128f611b6f565b838361205f565b5050565b60006112a582610e5b565b83106112e6576040517f08c379a00000000000000000000000000000000000000000000000000000000081526004016112dd90613da8565b60405180910390fd5b600e60008373ffffffffffffffffffffffffffffffffffffffff1673ffffffffffffffffffffffffffffffffffffffff168152602001908152602001600020600084815260200190815260200160002054905092915050565b61135061134a611b6f565b83611c3e565b61138f576040517f08c379a000000000000000000000000000000000000000000000000000000000815260040161138690613b7f565b60405180910390fd5b61139b848484846121cc565b50505050565b60006113ac83610cfc565b156113ec576040517f08c379a00000000000000000000000000000000000000000000000000000000081526004016113e3906140b7565b60405180910390fd5b6010543414611430576040517f08c379a000000000000000000000000000000000000000000000000000000000815260040161142790613ce9565b60405180910390fd5b61143a6009611f83565b6114446008611f83565b60006114506009611c30565b905061145c3382612228565b6114668185612246565b6001600b856040516114789190613d45565b908152602001604051809103902060006101000a81548160ff0219169083151502179055506114a781846122ba565b8091505092915050565b60105481565b60606114c282611b03565b611501576040517f08c379a00000000000000000000000000000000000000000000000000000000081526004016114f890614149565b60405180910390fd5b600060066000848152602001908152602001600020805461152190613925565b80601f016020809104026020016040519081016040528092919081815260200182805461154d90613925565b801561159a5780601f1061156f5761010080835404028352916020019161159a565b820191906000526020600020905b81548152906001019060200180831161157d57829003601f168201915b5050505050905060006115ab61240a565b90506000815114156115c1578192505050611604565b6000825111156115f65780826040516020016115de929190614169565b60405160208183030381529060405292505050611604565b6115ff84612421565b925050505b919050565b6000600c6000838152602001908152602001600020600101549050600061162f83610da9565b90508073ffffffffffffffffffffffffffffffffffffffff163373ffffffffffffffffffffffffffffffffffffffff1614156116a0576040517f08c379a0000000000000000000000000000000000000000000000000000000008152600401611697906141d9565b60405180910390fd5b8134146116e2576040517f08c379a00000000000000000000000000000000000000000000000000000000081526004016116d990614245565b60405180910390fd5b6000600c600085815260200190815260200160002060020160146101000a81548160ff02191690831515021790555061171b60086124c8565b611726813385611d1c565b8073ffffffffffffffffffffffffffffffffffffffff166108fc349081150290604051600060405180830381858888f1935050505015801561176c573d6000803e3d6000fd5b50505050565b6000600560008473ffffffffffffffffffffffffffffffffffffffff1673ffffffffffffffffffffffffffffffffffffffff16815260200190815260200160002060008373ffffffffffffffffffffffffffffffffffffffff1673ffffffffffffffffffffffffffffffffffffffff16815260200190815260200160002060009054906101000a900460ff16905092915050565b61180e611b6f565b73ffffffffffffffffffffffffffffffffffffffff1661182c6111c8565b73ffffffffffffffffffffffffffffffffffffffff1614611882576040517f08c379a000000000000000000000000000000000000000000000000000000000815260040161187990613f67565b60405180910390fd5b600073ffffffffffffffffffffffffffffffffffffffff168173ffffffffffffffffffffffffffffffffffffffff1614156118f2576040517f08c379a00000000000000000000000000000000000000000000000000000000081526004016118e9906142d7565b60405180910390fd5b6118fb81611f99565b50565b6060600061190a610a41565b90506000806119196008611c30565b67ffffffffffffffff811115611932576119316133c3565b5b60405190808252806020026020018201604052801561196b57816020015b611958612ec7565b8152602001906001900390816119505790505b50905060005b83811015611a8f57600061198482610d38565b90506000600c60008381526020019081526020016000209050600115158160020160149054906101000a900460ff1615151415611a7a578060405180608001604052908160008201548152602001600182015481526020016002820160009054906101000a900473ffffffffffffffffffffffffffffffffffffffff1673ffffffffffffffffffffffffffffffffffffffff1673ffffffffffffffffffffffffffffffffffffffff1681526020016002820160149054906101000a900460ff161515151581525050848681518110611a5f57611a5e613dc8565b5b6020026020010181905250600185611a7791906142f7565b94505b50508080611a8790614022565b915050611971565b5080935050505090565b60007f01ffc9a7000000000000000000000000000000000000000000000000000000007bffffffffffffffffffffffffffffffffffffffffffffffffffffffff1916827bffffffffffffffffffffffffffffffffffffffffffffffffffffffff1916149050919050565b60008073ffffffffffffffffffffffffffffffffffffffff166002600084815260200190815260200160002060009054906101000a900473ffffffffffffffffffffffffffffffffffffffff1673ffffffffffffffffffffffffffffffffffffffff1614159050919050565b600033905090565b816004600083815260200190815260200160002060006101000a81548173ffffffffffffffffffffffffffffffffffffffff021916908373ffffffffffffffffffffffffffffffffffffffff160217905550808273ffffffffffffffffffffffffffffffffffffffff16611bea83610da9565b73ffffffffffffffffffffffffffffffffffffffff167f8c5be1e5ebec7d5bd14f71427d1e84f3dd0314c0f7b2291e5b200ac8c7c3b92560405160405180910390a45050565b600081600001549050919050565b6000611c4982611b03565b611c88576040517f08c379a0000000000000000000000000000000000000000000000000000000008152600401611c7f906143bf565b60405180910390fd5b6000611c9383610da9565b90508073ffffffffffffffffffffffffffffffffffffffff168473ffffffffffffffffffffffffffffffffffffffff161480611d0257508373ffffffffffffffffffffffffffffffffffffffff16611cea84610893565b73ffffffffffffffffffffffffffffffffffffffff16145b80611d135750611d128185611772565b5b91505092915050565b8273ffffffffffffffffffffffffffffffffffffffff16611d3c82610da9565b73ffffffffffffffffffffffffffffffffffffffff1614611d92576040517f08c379a0000000000000000000000000000000000000000000000000000000008152600401611d8990614451565b60405180910390fd5b600073ffffffffffffffffffffffffffffffffffffffff168273ffffffffffffffffffffffffffffffffffffffff161415611e02576040517f08c379a0000000000000000000000000000000000000000000000000000000008152600401611df9906144e3565b60405180910390fd5b611e0d838383612524565b611e18600082611b77565b6001600360008573ffffffffffffffffffffffffffffffffffffffff1673ffffffffffffffffffffffffffffffffffffffff1681526020019081526020016000206000828254611e689190614503565b925050819055506001600360008473ffffffffffffffffffffffffffffffffffffffff1673ffffffffffffffffffffffffffffffffffffffff1681526020019081526020016000206000828254611ebf91906142f7565b92505081905550816002600083815260200190815260200160002060006101000a81548173ffffffffffffffffffffffffffffffffffffffff021916908373ffffffffffffffffffffffffffffffffffffffff160217905550808273ffffffffffffffffffffffffffffffffffffffff168473ffffffffffffffffffffffffffffffffffffffff167fddf252ad1be2c89b69c2b068fc378daa952ba7f163c4a11628f55a4df523b3ef60405160405180910390a4611f7e838383612676565b505050565b6001816000016000828254019250508190555050565b6000600760009054906101000a900473ffffffffffffffffffffffffffffffffffffffff16905081600760006101000a81548173ffffffffffffffffffffffffffffffffffffffff021916908373ffffffffffffffffffffffffffffffffffffffff1602179055508173ffffffffffffffffffffffffffffffffffffffff168173ffffffffffffffffffffffffffffffffffffffff167f8be0079c531659141344cd1fd0a4f28419497f9722a3daafe3b4186f6b6457e060405160405180910390a35050565b8173ffffffffffffffffffffffffffffffffffffffff168373ffffffffffffffffffffffffffffffffffffffff1614156120ce576040517f08c379a00000000000000000000000000000000000000000000000000000000081526004016120c590614583565b60405180910390fd5b80600560008573ffffffffffffffffffffffffffffffffffffffff1673ffffffffffffffffffffffffffffffffffffffff16815260200190815260200160002060008473ffffffffffffffffffffffffffffffffffffffff1673ffffffffffffffffffffffffffffffffffffffff16815260200190815260200160002060006101000a81548160ff0219169083151502179055508173ffffffffffffffffffffffffffffffffffffffff168373ffffffffffffffffffffffffffffffffffffffff167f17307eab39ab6107e8899845ad3d59bd9653f200f220920489ca2b5937696c31836040516121bf919061305e565b60405180910390a3505050565b6121d7848484611d1c565b6121e38484848461267b565b612222576040517f08c379a000000000000000000000000000000000000000000000000000000000815260040161221990614615565b60405180910390fd5b50505050565b612242828260405180602001604052806000815250612803565b5050565b61224f82611b03565b61228e576040517f08c379a0000000000000000000000000000000000000000000000000000000008152600401612285906146a7565b60405180910390fd5b806006600084815260200190815260200160002090805190602001906122b5929190612f07565b505050565b600081116122fd576040517f08c379a00000000000000000000000000000000000000000000000000000000081526004016122f490613fd3565b60405180910390fd5b60405180608001604052808381526020018281526020013373ffffffffffffffffffffffffffffffffffffffff16815260200160011515815250600c6000848152602001908152602001600020600082015181600001556020820151816001015560408201518160020160006101000a81548173ffffffffffffffffffffffffffffffffffffffff021916908373ffffffffffffffffffffffffffffffffffffffff16021790555060608201518160020160146101000a81548160ff0219169083151502179055509050507f9e4ac186141cd18db26f2becc712c26afe828fa265922b57b883a46ef9d686dc82823360016040516123fe94939291906146c7565b60405180910390a15050565b606060405180602001604052806000815250905090565b606061242c82611b03565b61246b576040517f08c379a00000000000000000000000000000000000000000000000000000000081526004016124629061477e565b60405180910390fd5b600061247561240a565b9050600081511161249557604051806020016040528060008152506124c0565b8061249f8461285e565b6040516020016124b0929190614169565b6040516020818303038152906040525b915050919050565b60008160000154905060008111612514576040517f08c379a000000000000000000000000000000000000000000000000000000000815260040161250b906147ea565b60405180910390fd5b6001810382600001819055505050565b61252f8383836129bf565b600073ffffffffffffffffffffffffffffffffffffffff168373ffffffffffffffffffffffffffffffffffffffff1614156125725761256d816129c4565b6125b1565b8173ffffffffffffffffffffffffffffffffffffffff168373ffffffffffffffffffffffffffffffffffffffff16146125b0576125af8382612a0d565b5b5b600073ffffffffffffffffffffffffffffffffffffffff168273ffffffffffffffffffffffffffffffffffffffff1614156125f4576125ef81612b7a565b612633565b8273ffffffffffffffffffffffffffffffffffffffff168273ffffffffffffffffffffffffffffffffffffffff1614612632576126318282612c4b565b5b5b8273ffffffffffffffffffffffffffffffffffffffff168273ffffffffffffffffffffffffffffffffffffffff1614612671576126708282612c4b565b5b505050565b505050565b600061269c8473ffffffffffffffffffffffffffffffffffffffff16612cca565b156127f6578373ffffffffffffffffffffffffffffffffffffffff1663150b7a026126c5611b6f565b8786866040518563ffffffff1660e01b81526004016126e7949392919061485f565b6020604051808303816000875af192505050801561272357506040513d601f19601f8201168201806040525081019061272091906148c0565b60015b6127a6573d8060008114612753576040519150601f19603f3d011682016040523d82523d6000602084013e612758565b606091505b5060008151141561279e576040517f08c379a000000000000000000000000000000000000000000000000000000000815260040161279590614615565b60405180910390fd5b805181602001fd5b63150b7a0260e01b7bffffffffffffffffffffffffffffffffffffffffffffffffffffffff1916817bffffffffffffffffffffffffffffffffffffffffffffffffffffffff1916149150506127fb565b600190505b949350505050565b61280d8383612ced565b61281a600084848461267b565b612859576040517f08c379a000000000000000000000000000000000000000000000000000000000815260040161285090614615565b60405180910390fd5b505050565b606060008214156128a6576040518060400160405280600181526020017f300000000000000000000000000000000000000000000000000000000000000081525090506129ba565b600082905060005b600082146128d85780806128c190614022565b915050600a826128d1919061491c565b91506128ae565b60008167ffffffffffffffff8111156128f4576128f36133c3565b5b6040519080825280601f01601f1916602001820160405280156129265781602001600182028036833780820191505090505b5090505b600085146129b35760018261293f9190614503565b9150600a8561294e919061494d565b603061295a91906142f7565b60f81b8183815181106129705761296f613dc8565b5b60200101907effffffffffffffffffffffffffffffffffffffffffffffffffffffffffffff1916908160001a905350600a856129ac919061491c565b945061292a565b8093505050505b919050565b505050565b600a80549050600d600083815260200190815260200160002081905550600a81908060018154018082558091505060019003906000526020600020016000909190919091505550565b60006001612a1a84610e5b565b612a249190614503565b90506000600f6000848152602001908152602001600020549050818114612b09576000600e60008673ffffffffffffffffffffffffffffffffffffffff1673ffffffffffffffffffffffffffffffffffffffff168152602001908152602001600020600084815260200190815260200160002054905082600e60008773ffffffffffffffffffffffffffffffffffffffff1673ffffffffffffffffffffffffffffffffffffffff16815260200190815260200160002060008481526020019081526020016000208190555081600f600083815260200190815260200160002081905550505b600f600084815260200190815260200160002060009055600e60008573ffffffffffffffffffffffffffffffffffffffff1673ffffffffffffffffffffffffffffffffffffffff16815260200190815260200160002060008381526020019081526020016000206000905550505050565b60006001600a80549050612b8e9190614503565b90506000600d60008481526020019081526020016000205490506000600a8381548110612bbe57612bbd613dc8565b5b9060005260206000200154905080600a8381548110612be057612bdf613dc8565b5b906000526020600020018190555081600d600085815260200190815260200160002081905550600d600085815260200190815260200160002060009055600a805480612c2f57612c2e61497e565b5b6001900381819060005260206000200160009055905550505050565b6000612c5683610e5b565b905081600e60008573ffffffffffffffffffffffffffffffffffffffff1673ffffffffffffffffffffffffffffffffffffffff16815260200190815260200160002060008381526020019081526020016000208190555080600f600084815260200190815260200160002081905550505050565b6000808273ffffffffffffffffffffffffffffffffffffffff163b119050919050565b600073ffffffffffffffffffffffffffffffffffffffff168273ffffffffffffffffffffffffffffffffffffffff161415612d5d576040517f08c379a0000000000000000000000000000000000000000000000000000000008152600401612d54906149f9565b60405180910390fd5b612d6681611b03565b15612da6576040517f08c379a0000000000000000000000000000000000000000000000000000000008152600401612d9d90614a65565b60405180910390fd5b612db260008383612524565b6001600360008473ffffffffffffffffffffffffffffffffffffffff1673ffffffffffffffffffffffffffffffffffffffff1681526020019081526020016000206000828254612e0291906142f7565b92505081905550816002600083815260200190815260200160002060006101000a81548173ffffffffffffffffffffffffffffffffffffffff021916908373ffffffffffffffffffffffffffffffffffffffff160217905550808273ffffffffffffffffffffffffffffffffffffffff16600073ffffffffffffffffffffffffffffffffffffffff167fddf252ad1be2c89b69c2b068fc378daa952ba7f163c4a11628f55a4df523b3ef60405160405180910390a4612ec360008383612676565b5050565b60405180608001604052806000815260200160008152602001600073ffffffffffffffffffffffffffffffffffffffff1681526020016000151581525090565b828054612f1390613925565b90600052602060002090601f016020900481019282612f355760008555612f7c565b82601f10612f4e57805160ff1916838001178555612f7c565b82800160010185558215612f7c579182015b82811115612f7b578251825591602001919060010190612f60565b5b509050612f899190612f8d565b5090565b5b80821115612fa6576000816000905550600101612f8e565b5090565b6000604051905090565b600080fd5b600080fd5b60007fffffffff0000000000000000000000000000000000000000000000000000000082169050919050565b612ff381612fbe565b8114612ffe57600080fd5b50565b60008135905061301081612fea565b92915050565b60006020828403121561302c5761302b612fb4565b5b600061303a84828501613001565b91505092915050565b60008115159050919050565b61305881613043565b82525050565b6000602082019050613073600083018461304f565b92915050565b600081519050919050565b600082825260208201905092915050565b60005b838110156130b3578082015181840152602081019050613098565b838111156130c2576000848401525b50505050565b6000601f19601f8301169050919050565b60006130e482613079565b6130ee8185613084565b93506130fe818560208601613095565b613107816130c8565b840191505092915050565b6000602082019050818103600083015261312c81846130d9565b905092915050565b6000819050919050565b61314781613134565b811461315257600080fd5b50565b6000813590506131648161313e565b92915050565b6000602082840312156131805761317f612fb4565b5b600061318e84828501613155565b91505092915050565b600073ffffffffffffffffffffffffffffffffffffffff82169050919050565b60006131c282613197565b9050919050565b6131d2816131b7565b82525050565b60006020820190506131ed60008301846131c9565b92915050565b6131fc816131b7565b811461320757600080fd5b50565b600081359050613219816131f3565b92915050565b6000806040838503121561323657613235612fb4565b5b60006132448582860161320a565b925050602061325585828601613155565b9150509250929050565b61326881613134565b82525050565b6000602082019050613283600083018461325f565b92915050565b6000806000606084860312156132a2576132a1612fb4565b5b60006132b08682870161320a565b93505060206132c18682870161320a565b92505060406132d286828701613155565b9150509250925092565b6132e581613134565b82525050565b6132f4816131b7565b82525050565b61330381613043565b82525050565b60808201600082015161331f60008501826132dc565b50602082015161333260208501826132dc565b50604082015161334560408501826132eb565b50606082015161335860608501826132fa565b50505050565b60006080820190506133736000830184613309565b92915050565b600080604083850312156133905761338f612fb4565b5b600061339e85828601613155565b92505060206133af85828601613155565b9150509250929050565b600080fd5b600080fd5b7f4e487b7100000000000000000000000000000000000000000000000000000000600052604160045260246000fd5b6133fb826130c8565b810181811067ffffffffffffffff8211171561341a576134196133c3565b5b80604052505050565b600061342d612faa565b905061343982826133f2565b919050565b600067ffffffffffffffff821115613459576134586133c3565b5b613462826130c8565b9050602081019050919050565b82818337600083830152505050565b600061349161348c8461343e565b613423565b9050828152602081018484840111156134ad576134ac6133be565b5b6134b884828561346f565b509392505050565b600082601f8301126134d5576134d46133b9565b5b81356134e584826020860161347e565b91505092915050565b60006020828403121561350457613503612fb4565b5b600082013567ffffffffffffffff81111561352257613521612fb9565b5b61352e848285016134c0565b91505092915050565b60006020828403121561354d5761354c612fb4565b5b600061355b8482850161320a565b91505092915050565b600081519050919050565b600082825260208201905092915050565b6000819050602082019050919050565b6080820160008201516135a660008501826132dc565b5060208201516135b960208501826132dc565b5060408201516135cc60408501826132eb565b5060608201516135df60608501826132fa565b50505050565b60006135f18383613590565b60808301905092915050565b6000602082019050919050565b600061361582613564565b61361f818561356f565b935061362a83613580565b8060005b8381101561365b57815161364288826135e5565b975061364d836135fd565b92505060018101905061362e565b5085935050505092915050565b60006020820190508181036000830152613682818461360a565b905092915050565b61369381613043565b811461369e57600080fd5b50565b6000813590506136b08161368a565b92915050565b600080604083850312156136cd576136cc612fb4565b5b60006136db8582860161320a565b92505060206136ec858286016136a1565b9150509250929050565b6000806040838503121561370d5761370c612fb4565b5b600061371b85828601613155565b925050602061372c8582860161320a565b9150509250929050565b600067ffffffffffffffff821115613751576137506133c3565b5b61375a826130c8565b9050602081019050919050565b600061377a61377584613736565b613423565b905082815260208101848484011115613796576137956133be565b5b6137a184828561346f565b509392505050565b600082601f8301126137be576137bd6133b9565b5b81356137ce848260208601613767565b91505092915050565b600080600080608085870312156137f1576137f0612fb4565b5b60006137ff8782880161320a565b94505060206138108782880161320a565b935050604061382187828801613155565b925050606085013567ffffffffffffffff81111561384257613841612fb9565b5b61384e878288016137a9565b91505092959194509250565b6000806040838503121561387157613870612fb4565b5b600083013567ffffffffffffffff81111561388f5761388e612fb9565b5b61389b858286016134c0565b92505060206138ac85828601613155565b9150509250929050565b600080604083850312156138cd576138cc612fb4565b5b60006138db8582860161320a565b92505060206138ec8582860161320a565b9150509250929050565b7f4e487b7100000000000000000000000000000000000000000000000000000000600052602260045260246000fd5b6000600282049050600182168061393d57607f821691505b60208210811415613951576139506138f6565b5b50919050565b7f4552433732313a20617070726f76656420717565727920666f72206e6f6e657860008201527f697374656e7420746f6b656e0000000000000000000000000000000000000000602082015250565b60006139b3602c83613084565b91506139be82613957565b604082019050919050565b600060208201905081810360008301526139e2816139a6565b9050919050565b7f4552433732313a20617070726f76616c20746f2063757272656e74206f776e6560008201527f7200000000000000000000000000000000000000000000000000000000000000602082015250565b6000613a45602183613084565b9150613a50826139e9565b604082019050919050565b60006020820190508181036000830152613a7481613a38565b9050919050565b7f4552433732313a20617070726f76652063616c6c6572206973206e6f74206f7760008201527f6e6572206e6f7220617070726f76656420666f7220616c6c0000000000000000602082015250565b6000613ad7603883613084565b9150613ae282613a7b565b604082019050919050565b60006020820190508181036000830152613b0681613aca565b9050919050565b7f4552433732313a207472616e736665722063616c6c6572206973206e6f74206f60008201527f776e6572206e6f7220617070726f766564000000000000000000000000000000602082015250565b6000613b69603183613084565b9150613b7482613b0d565b604082019050919050565b60006020820190508181036000830152613b9881613b5c565b9050919050565b7f796f7520617265206e6f74206f776e6572206f6620746865206974656d000000600082015250565b6000613bd5601d83613084565b9150613be082613b9f565b602082019050919050565b60006020820190508181036000830152613c0481613bc8565b9050919050565b7f6974656d20697320616c7265616479206f6e2073616c65000000000000000000600082015250565b6000613c41601783613084565b9150613c4c82613c0b565b602082019050919050565b60006020820190508181036000830152613c7081613c34565b9050919050565b7f7072696365206d75737420626520657175616c20746f206c697374696e67207060008201527f7269636500000000000000000000000000000000000000000000000000000000602082015250565b6000613cd3602483613084565b9150613cde82613c77565b604082019050919050565b60006020820190508181036000830152613d0281613cc6565b9050919050565b600081905092915050565b6000613d1f82613079565b613d298185613d09565b9350613d39818560208601613095565b80840191505092915050565b6000613d518284613d14565b915081905092915050565b7f696e646578206f7574206f6620626f756e647300000000000000000000000000600082015250565b6000613d92601383613084565b9150613d9d82613d5c565b602082019050919050565b60006020820190508181036000830152613dc181613d85565b9050919050565b7f4e487b7100000000000000000000000000000000000000000000000000000000600052603260045260246000fd5b7f4552433732313a206f776e657220717565727920666f72206e6f6e657869737460008201527f656e7420746f6b656e0000000000000000000000000000000000000000000000602082015250565b6000613e53602983613084565b9150613e5e82613df7565b604082019050919050565b60006020820190508181036000830152613e8281613e46565b9050919050565b7f4552433732313a2062616c616e636520717565727920666f7220746865207a6560008201527f726f206164647265737300000000000000000000000000000000000000000000602082015250565b6000613ee5602a83613084565b9150613ef082613e89565b604082019050919050565b60006020820190508181036000830152613f1481613ed8565b9050919050565b7f4f776e61626c653a2063616c6c6572206973206e6f7420746865206f776e6572600082015250565b6000613f51602083613084565b9150613f5c82613f1b565b602082019050919050565b60006020820190508181036000830152613f8081613f44565b9050919050565b7f7072696365206d7573742062652076616c696400000000000000000000000000600082015250565b6000613fbd601383613084565b9150613fc882613f87565b602082019050919050565b60006020820190508181036000830152613fec81613fb0565b9050919050565b7f4e487b7100000000000000000000000000000000000000000000000000000000600052601160045260246000fd5b600061402d82613134565b91507fffffffffffffffffffffffffffffffffffffffffffffffffffffffffffffffff8214156140605761405f613ff3565b5b600182019050919050565b7f746f6b656e55524c20616c726561647920657869737473000000000000000000600082015250565b60006140a1601783613084565b91506140ac8261406b565b602082019050919050565b600060208201905081810360008301526140d081614094565b9050919050565b7f45524337323155524953746f726167653a2055524920717565727920666f722060008201527f6e6f6e6578697374656e7420746f6b656e000000000000000000000000000000602082015250565b6000614133603183613084565b915061413e826140d7565b604082019050919050565b6000602082019050818103600083015261416281614126565b9050919050565b60006141758285613d14565b91506141818284613d14565b91508190509392505050565b7f796f7520616c7265616479206f776e2074686973206974656d00000000000000600082015250565b60006141c3601983613084565b91506141ce8261418d565b602082019050919050565b600060208201905081810360008301526141f2816141b6565b9050919050565b7f706c656173652073656e64207468652072657175697265642070726963650000600082015250565b600061422f601e83613084565b915061423a826141f9565b602082019050919050565b6000602082019050818103600083015261425e81614222565b9050919050565b7f4f776e61626c653a206e6577206f776e657220697320746865207a65726f206160008201527f6464726573730000000000000000000000000000000000000000000000000000602082015250565b60006142c1602683613084565b91506142cc82614265565b604082019050919050565b600060208201905081810360008301526142f0816142b4565b9050919050565b600061430282613134565b915061430d83613134565b9250827fffffffffffffffffffffffffffffffffffffffffffffffffffffffffffffffff0382111561434257614341613ff3565b5b828201905092915050565b7f4552433732313a206f70657261746f7220717565727920666f72206e6f6e657860008201527f697374656e7420746f6b656e0000000000000000000000000000000000000000602082015250565b60006143a9602c83613084565b91506143b48261434d565b604082019050919050565b600060208201905081810360008301526143d88161439c565b9050919050565b7f4552433732313a207472616e736665722066726f6d20696e636f72726563742060008201527f6f776e6572000000000000000000000000000000000000000000000000000000602082015250565b600061443b602583613084565b9150614446826143df565b604082019050919050565b6000602082019050818103600083015261446a8161442e565b9050919050565b7f4552433732313a207472616e7366657220746f20746865207a65726f2061646460008201527f7265737300000000000000000000000000000000000000000000000000000000602082015250565b60006144cd602483613084565b91506144d882614471565b604082019050919050565b600060208201905081810360008301526144fc816144c0565b9050919050565b600061450e82613134565b915061451983613134565b92508282101561452c5761452b613ff3565b5b828203905092915050565b7f4552433732313a20617070726f766520746f2063616c6c657200000000000000600082015250565b600061456d601983613084565b915061457882614537565b602082019050919050565b6000602082019050818103600083015261459c81614560565b9050919050565b7f4552433732313a207472616e7366657220746f206e6f6e20455243373231526560008201527f63656976657220696d706c656d656e7465720000000000000000000000000000602082015250565b60006145ff603283613084565b915061460a826145a3565b604082019050919050565b6000602082019050818103600083015261462e816145f2565b9050919050565b7f45524337323155524953746f726167653a2055524920736574206f66206e6f6e60008201527f6578697374656e7420746f6b656e000000000000000000000000000000000000602082015250565b6000614691602e83613084565b915061469c82614635565b604082019050919050565b600060208201905081810360008301526146c081614684565b9050919050565b60006080820190506146dc600083018761325f565b6146e9602083018661325f565b6146f660408301856131c9565b614703606083018461304f565b95945050505050565b7f4552433732314d657461646174613a2055524920717565727920666f72206e6f60008201527f6e6578697374656e7420746f6b656e0000000000000000000000000000000000602082015250565b6000614768602f83613084565b91506147738261470c565b604082019050919050565b600060208201905081810360008301526147978161475b565b9050919050565b7f436f756e7465723a2064656372656d656e74206f766572666c6f770000000000600082015250565b60006147d4601b83613084565b91506147df8261479e565b602082019050919050565b60006020820190508181036000830152614803816147c7565b9050919050565b600081519050919050565b600082825260208201905092915050565b60006148318261480a565b61483b8185614815565b935061484b818560208601613095565b614854816130c8565b840191505092915050565b600060808201905061487460008301876131c9565b61488160208301866131c9565b61488e604083018561325f565b81810360608301526148a08184614826565b905095945050505050565b6000815190506148ba81612fea565b92915050565b6000602082840312156148d6576148d5612fb4565b5b60006148e4848285016148ab565b91505092915050565b7f4e487b7100000000000000000000000000000000000000000000000000000000600052601260045260246000fd5b600061492782613134565b915061493283613134565b925082614942576149416148ed565b5b828204905092915050565b600061495882613134565b915061496383613134565b925082614973576149726148ed565b5b828206905092915050565b7f4e487b7100000000000000000000000000000000000000000000000000000000600052603160045260246000fd5b7f4552433732313a206d696e7420746f20746865207a65726f2061646472657373600082015250565b60006149e3602083613084565b91506149ee826149ad565b602082019050919050565b60006020820190508181036000830152614a12816149d6565b9050919050565b7f4552433732313a20746f6b656e20616c7265616479206d696e74656400000000600082015250565b6000614a4f601c83613084565b9150614a5a82614a19565b602082019050919050565b60006020820190508181036000830152614a7e81614a42565b905091905056fea26469706673582212200b9e3f7221f4f816678e6509aa2704ff7cf8e3d6c5424228fa97725621ad2b5c64736f6c634300080b0033",
  "immutableReferences": {},
  "source": "// SPDX-License-Identifier: MIT\r\npragma solidity >=0.4.22 <0.9.0;\r\n\r\nimport \"@openzeppelin/contracts/token/ERC721/extensions/ERC721URIStorage.sol\";\r\nimport \"@openzeppelin/contracts/utils/Counters.sol\";\r\nimport \"@openzeppelin/contracts/access/Ownable.sol\";\r\n\r\ncontract EthMarket is ERC721URIStorage, Ownable {\r\n    using Counters for Counters.Counter;\r\n    Counters.Counter private _listedItems;\r\n    Counters.Counter private _tokenIds;\r\n\r\n    uint256[] private _allitems;\r\n\r\n    mapping(string => bool) private _usedTokenURIs;\r\n    mapping(uint256 => Item) private _idToItem;\r\n    mapping(uint256 => uint256) private _idToItemIdx;\r\n    mapping(address => mapping(uint256 => uint256)) private _ownedTokens;\r\n    mapping(uint256 => uint256) private _idToOwnedItemIdx;\r\n\r\n    struct Item {\r\n        uint256 tokenId;\r\n        uint256 price;\r\n        address creator;\r\n        bool isListed;\r\n    }\r\n\r\n    uint256 public listingPrice = 0.025 ether;\r\n\r\n    event ItemCreated(\r\n        uint256 tokenId,\r\n        uint256 price,\r\n        address creator,\r\n        bool isListed\r\n    );\r\n\r\n    constructor() ERC721(\"EthItems\", \"EITM\") {}\r\n\r\n    function setListingPrice(uint256 newPrice) external onlyOwner {\r\n        require(newPrice > 0, \"price must be valid\");\r\n\r\n        listingPrice = newPrice;\r\n    }\r\n\r\n    function mintToken(string memory tokenURI, uint256 price)\r\n        public\r\n        payable\r\n        returns (uint256)\r\n    {\r\n        require(!tokenURIExists(tokenURI), \"tokenURL already exists\");\r\n        require(\r\n            msg.value == listingPrice,\r\n            \"price must be equal to listing price\"\r\n        );\r\n\r\n        _tokenIds.increment();\r\n        _listedItems.increment();\r\n\r\n        uint256 newTokenId = _tokenIds.current();\r\n\r\n        _safeMint(msg.sender, newTokenId);\r\n        _setTokenURI(newTokenId, tokenURI);\r\n        _usedTokenURIs[tokenURI] = true;\r\n        _createItem(newTokenId, price);\r\n\r\n        return newTokenId;\r\n    }\r\n\r\n    function buyItem(uint256 tokenId) public payable {\r\n        uint256 price = _idToItem[tokenId].price;\r\n        address owner = ERC721.ownerOf(tokenId);\r\n\r\n        require(msg.sender != owner, \"you already own this item\");\r\n        require(msg.value == price, \"please send the required price\");\r\n\r\n        _idToItem[tokenId].isListed = false;\r\n        _listedItems.decrement();\r\n\r\n        _transfer(owner, msg.sender, tokenId);\r\n        payable(owner).transfer(msg.value);\r\n    }\r\n\r\n    function tokenURIExists(string memory tokenURI) public view returns (bool) {\r\n        return _usedTokenURIs[tokenURI] == true;\r\n    }\r\n\r\n    function getItem(uint256 tokenId) public view returns (Item memory) {\r\n        return _idToItem[tokenId];\r\n    }\r\n\r\n    function getListenItemCount() public view returns (uint256) {\r\n        return _listedItems.current();\r\n    }\r\n\r\n    function _createItem(uint256 tokenId, uint256 price) private {\r\n        require(price > 0, \"price must be valid\");\r\n\r\n        _idToItem[tokenId] = Item(tokenId, price, msg.sender, true);\r\n        emit ItemCreated(tokenId, price, msg.sender, true);\r\n    }\r\n\r\n    function totalSupply() public view returns (uint256) {\r\n        return _allitems.length;\r\n    }\r\n\r\n    function getAllItemsOnSale() public view returns (Item[] memory) {\r\n        uint256 allItemsCount = totalSupply();\r\n        uint256 currentIndex = 0;\r\n        Item[] memory items = new Item[](_listedItems.current());\r\n\r\n        for (uint256 i = 0; i < allItemsCount; i++) {\r\n            uint256 tokenId = tokenByIndex(i);\r\n            Item storage item = _idToItem[tokenId];\r\n\r\n            if (item.isListed == true) {\r\n                items[currentIndex] = item;\r\n                currentIndex += 1;\r\n            }\r\n        }\r\n\r\n        return items;\r\n    }\r\n\r\n    function tokenByIndex(uint256 idx) public view returns (uint256) {\r\n        require(idx < totalSupply(), \"index out of bounds\");\r\n        return _allitems[idx];\r\n    }\r\n\r\n    function getOwnedItems() public view returns (Item[] memory) {\r\n        uint256 ownedItemsCount = ERC721.balanceOf(msg.sender);\r\n        Item[] memory items = new Item[](ownedItemsCount);\r\n\r\n        for (uint256 i = 0; i < ownedItemsCount; i++) {\r\n            uint256 tokenId = tokenOfOwnerByIndex(i, msg.sender);\r\n            Item storage item = _idToItem[tokenId];\r\n            items[i] = item;\r\n        }\r\n\r\n        return items;\r\n    }\r\n\r\n    function tokenOfOwnerByIndex(uint256 idx, address owner)\r\n        public\r\n        view\r\n        returns (uint256)\r\n    {\r\n        require(idx < ERC721.balanceOf(owner), \"index out of bounds\");\r\n        return _ownedTokens[owner][idx];\r\n    }\r\n\r\n    function _beforeTokenTransfer(\r\n        address from,\r\n        address to,\r\n        uint256 tokenId\r\n    ) internal virtual override {\r\n        super._beforeTokenTransfer(from, to, tokenId);\r\n\r\n        if (from == address(0)) {\r\n            _addTokenToAllTokensEnumeration(tokenId);\r\n        } else if (from != to) {\r\n            _removeTokenFromOwnerEnumeration(from, tokenId);\r\n        }\r\n\r\n        if (to == address(0)) {\r\n            _removeTokenFromAllTokensEnumeration(tokenId);\r\n        } else if (to != from) {\r\n            _addTokenToOwnerEnumeration(to, tokenId);\r\n        }\r\n\r\n        if (to != from) {\r\n            _addTokenToOwnerEnumeration(to, tokenId);\r\n        }\r\n    }\r\n\r\n    function placeItemOnSale(uint256 tokenId, uint256 newPrice) public payable {\r\n        require(\r\n            ERC721.ownerOf(tokenId) == msg.sender,\r\n            \"you are not owner of the item\"\r\n        );\r\n        require(\r\n            _idToItem[tokenId].isListed == false,\r\n            \"item is already on sale\"\r\n        );\r\n        require(\r\n            msg.value == listingPrice,\r\n            \"price must be equal to listing price\"\r\n        );\r\n\r\n        _idToItem[tokenId].isListed = true;\r\n        _listedItems.increment();\r\n        _idToItem[tokenId].price = newPrice;\r\n    }\r\n\r\n    function _addTokenToAllTokensEnumeration(uint256 tokenId) private {\r\n        _idToItemIdx[tokenId] = _allitems.length;\r\n        _allitems.push(tokenId);\r\n    }\r\n\r\n    function _addTokenToOwnerEnumeration(address to, uint256 tokenId) private {\r\n        uint256 length = ERC721.balanceOf(to);\r\n\r\n        _ownedTokens[to][length] = tokenId;\r\n        _idToOwnedItemIdx[tokenId] = length;\r\n    }\r\n\r\n    function _removeTokenFromOwnerEnumeration(address from, uint256 tokenId)\r\n        private\r\n    {\r\n        uint256 lastTokenIdx = ERC721.balanceOf(from) - 1;\r\n        uint256 tokenIdx = _idToOwnedItemIdx[tokenId];\r\n\r\n        if (tokenIdx != lastTokenIdx) {\r\n            uint256 lastTokenId = _ownedTokens[from][lastTokenIdx];\r\n            _ownedTokens[from][tokenIdx] = lastTokenIdx;\r\n            _idToOwnedItemIdx[lastTokenId] = tokenIdx;\r\n        }\r\n\r\n        delete _idToOwnedItemIdx[tokenId];\r\n        delete _ownedTokens[from][lastTokenIdx];\r\n    }\r\n\r\n    function _removeTokenFromAllTokensEnumeration(uint256 tokenId) private {\r\n        uint256 lastTokenIdx = _allitems.length - 1;\r\n        uint256 tokenIdx = _idToItemIdx[tokenId];\r\n        uint256 lastTokenId = _allitems[lastTokenIdx];\r\n\r\n        _allitems[tokenIdx] = lastTokenId;\r\n        _idToItemIdx[lastTokenIdx] = tokenIdx;\r\n\r\n        delete _idToItemIdx[tokenId];\r\n        _allitems.pop();\r\n    }\r\n}\r\n",
  "sourcePath": "C:\\Users\\Sambit\\Personal Projects\\web3.0\\marketplace\\eth-marketplace\\contracts\\EthMarket.sol",
  "compiler": {
    "name": "solc",
    "version": "0.8.11+commit.d7f03943.Emscripten.clang"
  },
  "schemaVersion": "3.4.4",
  "updatedAt": "2022-08-14T16:42:54.495Z",
  "networkType": "ethereum",
  "devdoc": {
    "kind": "dev",
    "methods": {
      "approve(address,uint256)": {
        "details": "See {IERC721-approve}."
      },
      "balanceOf(address)": {
        "details": "See {IERC721-balanceOf}."
      },
      "getApproved(uint256)": {
        "details": "See {IERC721-getApproved}."
      },
      "isApprovedForAll(address,address)": {
        "details": "See {IERC721-isApprovedForAll}."
      },
      "name()": {
        "details": "See {IERC721Metadata-name}."
      },
      "owner()": {
        "details": "Returns the address of the current owner."
      },
      "ownerOf(uint256)": {
        "details": "See {IERC721-ownerOf}."
      },
      "renounceOwnership()": {
        "details": "Leaves the contract without owner. It will not be possible to call `onlyOwner` functions anymore. Can only be called by the current owner. NOTE: Renouncing ownership will leave the contract without an owner, thereby removing any functionality that is only available to the owner."
      },
      "safeTransferFrom(address,address,uint256)": {
        "details": "See {IERC721-safeTransferFrom}."
      },
      "safeTransferFrom(address,address,uint256,bytes)": {
        "details": "See {IERC721-safeTransferFrom}."
      },
      "setApprovalForAll(address,bool)": {
        "details": "See {IERC721-setApprovalForAll}."
      },
      "supportsInterface(bytes4)": {
        "details": "See {IERC165-supportsInterface}."
      },
      "symbol()": {
        "details": "See {IERC721Metadata-symbol}."
      },
      "tokenURI(uint256)": {
        "details": "See {IERC721Metadata-tokenURI}."
      },
      "transferFrom(address,address,uint256)": {
        "details": "See {IERC721-transferFrom}."
      },
      "transferOwnership(address)": {
        "details": "Transfers ownership of the contract to a new account (`newOwner`). Can only be called by the current owner."
      }
    },
    "version": 1
  },
  "userdoc": {
    "kind": "user",
    "methods": {},
    "version": 1
  }
}