{
  "contractName": "EthMarket",
  "abi": [
    {
      "inputs": [],
      "stateMutability": "nonpayable",
      "type": "constructor"
    },
    {
      "anonymous": false,
      "inputs": [
        {
          "indexed": true,
          "internalType": "address",
          "name": "owner",
          "type": "address"
        },
        {
          "indexed": true,
          "internalType": "address",
          "name": "approved",
          "type": "address"
        },
        {
          "indexed": true,
          "internalType": "uint256",
          "name": "tokenId",
          "type": "uint256"
        }
      ],
      "name": "Approval",
      "type": "event"
    },
    {
      "anonymous": false,
      "inputs": [
        {
          "indexed": true,
          "internalType": "address",
          "name": "owner",
          "type": "address"
        },
        {
          "indexed": true,
          "internalType": "address",
          "name": "operator",
          "type": "address"
        },
        {
          "indexed": false,
          "internalType": "bool",
          "name": "approved",
          "type": "bool"
        }
      ],
      "name": "ApprovalForAll",
      "type": "event"
    },
    {
      "anonymous": false,
      "inputs": [
        {
          "indexed": true,
          "internalType": "address",
          "name": "from",
          "type": "address"
        },
        {
          "indexed": true,
          "internalType": "address",
          "name": "to",
          "type": "address"
        },
        {
          "indexed": true,
          "internalType": "uint256",
          "name": "tokenId",
          "type": "uint256"
        }
      ],
      "name": "Transfer",
      "type": "event"
    },
    {
      "inputs": [
        {
          "internalType": "address",
          "name": "to",
          "type": "address"
        },
        {
          "internalType": "uint256",
          "name": "tokenId",
          "type": "uint256"
        }
      ],
      "name": "approve",
      "outputs": [],
      "stateMutability": "nonpayable",
      "type": "function"
    },
    {
      "inputs": [
        {
          "internalType": "address",
          "name": "owner",
          "type": "address"
        }
      ],
      "name": "balanceOf",
      "outputs": [
        {
          "internalType": "uint256",
          "name": "",
          "type": "uint256"
        }
      ],
      "stateMutability": "view",
      "type": "function",
      "constant": true
    },
    {
      "inputs": [
        {
          "internalType": "uint256",
          "name": "tokenId",
          "type": "uint256"
        }
      ],
      "name": "getApproved",
      "outputs": [
        {
          "internalType": "address",
          "name": "",
          "type": "address"
        }
      ],
      "stateMutability": "view",
      "type": "function",
      "constant": true
    },
    {
      "inputs": [
        {
          "internalType": "address",
          "name": "owner",
          "type": "address"
        },
        {
          "internalType": "address",
          "name": "operator",
          "type": "address"
        }
      ],
      "name": "isApprovedForAll",
      "outputs": [
        {
          "internalType": "bool",
          "name": "",
          "type": "bool"
        }
      ],
      "stateMutability": "view",
      "type": "function",
      "constant": true
    },
    {
      "inputs": [],
      "name": "name",
      "outputs": [
        {
          "internalType": "string",
          "name": "",
          "type": "string"
        }
      ],
      "stateMutability": "view",
      "type": "function",
      "constant": true
    },
    {
      "inputs": [
        {
          "internalType": "uint256",
          "name": "tokenId",
          "type": "uint256"
        }
      ],
      "name": "ownerOf",
      "outputs": [
        {
          "internalType": "address",
          "name": "",
          "type": "address"
        }
      ],
      "stateMutability": "view",
      "type": "function",
      "constant": true
    },
    {
      "inputs": [
        {
          "internalType": "address",
          "name": "from",
          "type": "address"
        },
        {
          "internalType": "address",
          "name": "to",
          "type": "address"
        },
        {
          "internalType": "uint256",
          "name": "tokenId",
          "type": "uint256"
        }
      ],
      "name": "safeTransferFrom",
      "outputs": [],
      "stateMutability": "nonpayable",
      "type": "function"
    },
    {
      "inputs": [
        {
          "internalType": "address",
          "name": "from",
          "type": "address"
        },
        {
          "internalType": "address",
          "name": "to",
          "type": "address"
        },
        {
          "internalType": "uint256",
          "name": "tokenId",
          "type": "uint256"
        },
        {
          "internalType": "bytes",
          "name": "_data",
          "type": "bytes"
        }
      ],
      "name": "safeTransferFrom",
      "outputs": [],
      "stateMutability": "nonpayable",
      "type": "function"
    },
    {
      "inputs": [
        {
          "internalType": "address",
          "name": "operator",
          "type": "address"
        },
        {
          "internalType": "bool",
          "name": "approved",
          "type": "bool"
        }
      ],
      "name": "setApprovalForAll",
      "outputs": [],
      "stateMutability": "nonpayable",
      "type": "function"
    },
    {
      "inputs": [
        {
          "internalType": "bytes4",
          "name": "interfaceId",
          "type": "bytes4"
        }
      ],
      "name": "supportsInterface",
      "outputs": [
        {
          "internalType": "bool",
          "name": "",
          "type": "bool"
        }
      ],
      "stateMutability": "view",
      "type": "function",
      "constant": true
    },
    {
      "inputs": [],
      "name": "symbol",
      "outputs": [
        {
          "internalType": "string",
          "name": "",
          "type": "string"
        }
      ],
      "stateMutability": "view",
      "type": "function",
      "constant": true
    },
    {
      "inputs": [
        {
          "internalType": "uint256",
          "name": "tokenId",
          "type": "uint256"
        }
      ],
      "name": "tokenURI",
      "outputs": [
        {
          "internalType": "string",
          "name": "",
          "type": "string"
        }
      ],
      "stateMutability": "view",
      "type": "function",
      "constant": true
    },
    {
      "inputs": [
        {
          "internalType": "address",
          "name": "from",
          "type": "address"
        },
        {
          "internalType": "address",
          "name": "to",
          "type": "address"
        },
        {
          "internalType": "uint256",
          "name": "tokenId",
          "type": "uint256"
        }
      ],
      "name": "transferFrom",
      "outputs": [],
      "stateMutability": "nonpayable",
      "type": "function"
    },
    {
      "inputs": [
        {
          "internalType": "string",
          "name": "tokenURI",
          "type": "string"
        }
      ],
      "name": "mintToken",
      "outputs": [
        {
          "internalType": "uint256",
          "name": "",
          "type": "uint256"
        }
      ],
      "stateMutability": "payable",
      "type": "function",
      "payable": true
    },
    {
      "inputs": [
        {
          "internalType": "string",
          "name": "tokenURI",
          "type": "string"
        }
      ],
      "name": "tokenURIExists",
      "outputs": [
        {
          "internalType": "bool",
          "name": "",
          "type": "bool"
        }
      ],
      "stateMutability": "view",
      "type": "function",
      "constant": true
    }
  ],
  "bytecode": "0x60806040523480156200001157600080fd5b506040518060400160405280600881526020017f4574684974656d730000000000000000000000000000000000000000000000008152506040518060400160405280600481526020017f4549544d00000000000000000000000000000000000000000000000000000000815250816000908051906020019062000096929190620000b8565b508060019080519060200190620000af929190620000b8565b505050620001cd565b828054620000c69062000197565b90600052602060002090601f016020900481019282620000ea576000855562000136565b82601f106200010557805160ff191683800117855562000136565b8280016001018555821562000136579182015b828111156200013557825182559160200191906001019062000118565b5b50905062000145919062000149565b5090565b5b80821115620001645760008160009055506001016200014a565b5090565b7f4e487b7100000000000000000000000000000000000000000000000000000000600052602260045260246000fd5b60006002820490506001821680620001b057607f821691505b60208210811415620001c757620001c662000168565b5b50919050565b612e5480620001dd6000396000f3fe6080604052600436106100e85760003560e01c806343d32ae71161008a578063a22cb46511610059578063a22cb4651461031f578063b88d4fde14610348578063c87b56dd14610371578063e985e9c5146103ae576100e8565b806343d32ae71461023d5780636352211e1461027a57806370a08231146102b757806395d89b41146102f4576100e8565b8063095ea7b3116100c6578063095ea7b31461019257806323b872dd146101bb57806333eba49a146101e457806342842e0e14610214576100e8565b806301ffc9a7146100ed57806306fdde031461012a578063081812fc14610155575b600080fd5b3480156100f957600080fd5b50610114600480360381019061010f9190611b46565b6103eb565b6040516101219190611b8e565b60405180910390f35b34801561013657600080fd5b5061013f6104cd565b60405161014c9190611c42565b60405180910390f35b34801561016157600080fd5b5061017c60048036038101906101779190611c9a565b61055f565b6040516101899190611d08565b60405180910390f35b34801561019e57600080fd5b506101b960048036038101906101b49190611d4f565b6105e4565b005b3480156101c757600080fd5b506101e260048036038101906101dd9190611d8f565b6106fc565b005b6101fe60048036038101906101f99190611f17565b61075c565b60405161020b9190611f6f565b60405180910390f35b34801561022057600080fd5b5061023b60048036038101906102369190611d8f565b61081d565b005b34801561024957600080fd5b50610264600480360381019061025f9190611f17565b61083d565b6040516102719190611b8e565b60405180910390f35b34801561028657600080fd5b506102a1600480360381019061029c9190611c9a565b610879565b6040516102ae9190611d08565b60405180910390f35b3480156102c357600080fd5b506102de60048036038101906102d99190611f8a565b61092b565b6040516102eb9190611f6f565b60405180910390f35b34801561030057600080fd5b506103096109e3565b6040516103169190611c42565b60405180910390f35b34801561032b57600080fd5b5061034660048036038101906103419190611fe3565b610a75565b005b34801561035457600080fd5b5061036f600480360381019061036a91906120c4565b610a8b565b005b34801561037d57600080fd5b5061039860048036038101906103939190611c9a565b610aed565b6040516103a59190611c42565b60405180910390f35b3480156103ba57600080fd5b506103d560048036038101906103d09190612147565b610c3f565b6040516103e29190611b8e565b60405180910390f35b60007f80ac58cd000000000000000000000000000000000000000000000000000000007bffffffffffffffffffffffffffffffffffffffffffffffffffffffff1916827bffffffffffffffffffffffffffffffffffffffffffffffffffffffff191614806104b657507f5b5e139f000000000000000000000000000000000000000000000000000000007bffffffffffffffffffffffffffffffffffffffffffffffffffffffff1916827bffffffffffffffffffffffffffffffffffffffffffffffffffffffff1916145b806104c657506104c582610cd3565b5b9050919050565b6060600080546104dc906121b6565b80601f0160208091040260200160405190810160405280929190818152602001828054610508906121b6565b80156105555780601f1061052a57610100808354040283529160200191610555565b820191906000526020600020905b81548152906001019060200180831161053857829003601f168201915b5050505050905090565b600061056a82610d3d565b6105a9576040517f08c379a00000000000000000000000000000000000000000000000000000000081526004016105a09061225a565b60405180910390fd5b6004600083815260200190815260200160002060009054906101000a900473ffffffffffffffffffffffffffffffffffffffff169050919050565b60006105ef82610879565b90508073ffffffffffffffffffffffffffffffffffffffff168373ffffffffffffffffffffffffffffffffffffffff161415610660576040517f08c379a0000000000000000000000000000000000000000000000000000000008152600401610657906122ec565b60405180910390fd5b8073ffffffffffffffffffffffffffffffffffffffff1661067f610da9565b73ffffffffffffffffffffffffffffffffffffffff1614806106ae57506106ad816106a8610da9565b610c3f565b5b6106ed576040517f08c379a00000000000000000000000000000000000000000000000000000000081526004016106e49061237e565b60405180910390fd5b6106f78383610db1565b505050565b61070d610707610da9565b82610e6a565b61074c576040517f08c379a000000000000000000000000000000000000000000000000000000000815260040161074390612410565b60405180910390fd5b610757838383610f48565b505050565b60006107678261083d565b156107a7576040517f08c379a000000000000000000000000000000000000000000000000000000000815260040161079e9061247c565b60405180910390fd5b6107b160086111af565b6107bb60076111af565b60006107c760086111c5565b90506107d333826111d3565b6107dd81846111f1565b60016009846040516107ef91906124d8565b908152602001604051809103902060006101000a81548160ff02191690831515021790555080915050919050565b61083883838360405180602001604052806000815250610a8b565b505050565b60006001151560098360405161085391906124d8565b908152602001604051809103902060009054906101000a900460ff161515149050919050565b6000806002600084815260200190815260200160002060009054906101000a900473ffffffffffffffffffffffffffffffffffffffff169050600073ffffffffffffffffffffffffffffffffffffffff168173ffffffffffffffffffffffffffffffffffffffff161415610922576040517f08c379a000000000000000000000000000000000000000000000000000000000815260040161091990612561565b60405180910390fd5b80915050919050565b60008073ffffffffffffffffffffffffffffffffffffffff168273ffffffffffffffffffffffffffffffffffffffff16141561099c576040517f08c379a0000000000000000000000000000000000000000000000000000000008152600401610993906125f3565b60405180910390fd5b600360008373ffffffffffffffffffffffffffffffffffffffff1673ffffffffffffffffffffffffffffffffffffffff168152602001908152602001600020549050919050565b6060600180546109f2906121b6565b80601f0160208091040260200160405190810160405280929190818152602001828054610a1e906121b6565b8015610a6b5780601f10610a4057610100808354040283529160200191610a6b565b820191906000526020600020905b815481529060010190602001808311610a4e57829003601f168201915b5050505050905090565b610a87610a80610da9565b8383611265565b5050565b610a9c610a96610da9565b83610e6a565b610adb576040517f08c379a0000000000000000000000000000000000000000000000000000000008152600401610ad290612410565b60405180910390fd5b610ae7848484846113d2565b50505050565b6060610af882610d3d565b610b37576040517f08c379a0000000000000000000000000000000000000000000000000000000008152600401610b2e90612685565b60405180910390fd5b6000600660008481526020019081526020016000208054610b57906121b6565b80601f0160208091040260200160405190810160405280929190818152602001828054610b83906121b6565b8015610bd05780601f10610ba557610100808354040283529160200191610bd0565b820191906000526020600020905b815481529060010190602001808311610bb357829003601f168201915b505050505090506000610be161142e565b9050600081511415610bf7578192505050610c3a565b600082511115610c2c578082604051602001610c149291906126a5565b60405160208183030381529060405292505050610c3a565b610c3584611445565b925050505b919050565b6000600560008473ffffffffffffffffffffffffffffffffffffffff1673ffffffffffffffffffffffffffffffffffffffff16815260200190815260200160002060008373ffffffffffffffffffffffffffffffffffffffff1673ffffffffffffffffffffffffffffffffffffffff16815260200190815260200160002060009054906101000a900460ff16905092915050565b60007f01ffc9a7000000000000000000000000000000000000000000000000000000007bffffffffffffffffffffffffffffffffffffffffffffffffffffffff1916827bffffffffffffffffffffffffffffffffffffffffffffffffffffffff1916149050919050565b60008073ffffffffffffffffffffffffffffffffffffffff166002600084815260200190815260200160002060009054906101000a900473ffffffffffffffffffffffffffffffffffffffff1673ffffffffffffffffffffffffffffffffffffffff1614159050919050565b600033905090565b816004600083815260200190815260200160002060006101000a81548173ffffffffffffffffffffffffffffffffffffffff021916908373ffffffffffffffffffffffffffffffffffffffff160217905550808273ffffffffffffffffffffffffffffffffffffffff16610e2483610879565b73ffffffffffffffffffffffffffffffffffffffff167f8c5be1e5ebec7d5bd14f71427d1e84f3dd0314c0f7b2291e5b200ac8c7c3b92560405160405180910390a45050565b6000610e7582610d3d565b610eb4576040517f08c379a0000000000000000000000000000000000000000000000000000000008152600401610eab9061273b565b60405180910390fd5b6000610ebf83610879565b90508073ffffffffffffffffffffffffffffffffffffffff168473ffffffffffffffffffffffffffffffffffffffff161480610f2e57508373ffffffffffffffffffffffffffffffffffffffff16610f168461055f565b73ffffffffffffffffffffffffffffffffffffffff16145b80610f3f5750610f3e8185610c3f565b5b91505092915050565b8273ffffffffffffffffffffffffffffffffffffffff16610f6882610879565b73ffffffffffffffffffffffffffffffffffffffff1614610fbe576040517f08c379a0000000000000000000000000000000000000000000000000000000008152600401610fb5906127cd565b60405180910390fd5b600073ffffffffffffffffffffffffffffffffffffffff168273ffffffffffffffffffffffffffffffffffffffff16141561102e576040517f08c379a00000000000000000000000000000000000000000000000000000000081526004016110259061285f565b60405180910390fd5b6110398383836114ec565b611044600082610db1565b6001600360008573ffffffffffffffffffffffffffffffffffffffff1673ffffffffffffffffffffffffffffffffffffffff168152602001908152602001600020600082825461109491906128ae565b925050819055506001600360008473ffffffffffffffffffffffffffffffffffffffff1673ffffffffffffffffffffffffffffffffffffffff16815260200190815260200160002060008282546110eb91906128e2565b92505081905550816002600083815260200190815260200160002060006101000a81548173ffffffffffffffffffffffffffffffffffffffff021916908373ffffffffffffffffffffffffffffffffffffffff160217905550808273ffffffffffffffffffffffffffffffffffffffff168473ffffffffffffffffffffffffffffffffffffffff167fddf252ad1be2c89b69c2b068fc378daa952ba7f163c4a11628f55a4df523b3ef60405160405180910390a46111aa8383836114f1565b505050565b6001816000016000828254019250508190555050565b600081600001549050919050565b6111ed8282604051806020016040528060008152506114f6565b5050565b6111fa82610d3d565b611239576040517f08c379a0000000000000000000000000000000000000000000000000000000008152600401611230906129aa565b60405180910390fd5b80600660008481526020019081526020016000209080519060200190611260929190611a37565b505050565b8173ffffffffffffffffffffffffffffffffffffffff168373ffffffffffffffffffffffffffffffffffffffff1614156112d4576040517f08c379a00000000000000000000000000000000000000000000000000000000081526004016112cb90612a16565b60405180910390fd5b80600560008573ffffffffffffffffffffffffffffffffffffffff1673ffffffffffffffffffffffffffffffffffffffff16815260200190815260200160002060008473ffffffffffffffffffffffffffffffffffffffff1673ffffffffffffffffffffffffffffffffffffffff16815260200190815260200160002060006101000a81548160ff0219169083151502179055508173ffffffffffffffffffffffffffffffffffffffff168373ffffffffffffffffffffffffffffffffffffffff167f17307eab39ab6107e8899845ad3d59bd9653f200f220920489ca2b5937696c31836040516113c59190611b8e565b60405180910390a3505050565b6113dd848484610f48565b6113e984848484611551565b611428576040517f08c379a000000000000000000000000000000000000000000000000000000000815260040161141f90612aa8565b60405180910390fd5b50505050565b606060405180602001604052806000815250905090565b606061145082610d3d565b61148f576040517f08c379a000000000000000000000000000000000000000000000000000000000815260040161148690612b3a565b60405180910390fd5b600061149961142e565b905060008151116114b957604051806020016040528060008152506114e4565b806114c3846116d9565b6040516020016114d49291906126a5565b6040516020818303038152906040525b915050919050565b505050565b505050565b611500838361183a565b61150d6000848484611551565b61154c576040517f08c379a000000000000000000000000000000000000000000000000000000000815260040161154390612aa8565b60405180910390fd5b505050565b60006115728473ffffffffffffffffffffffffffffffffffffffff16611a14565b156116cc578373ffffffffffffffffffffffffffffffffffffffff1663150b7a0261159b610da9565b8786866040518563ffffffff1660e01b81526004016115bd9493929190612baf565b6020604051808303816000875af19250505080156115f957506040513d601f19601f820116820180604052508101906115f69190612c10565b60015b61167c573d8060008114611629576040519150601f19603f3d011682016040523d82523d6000602084013e61162e565b606091505b50600081511415611674576040517f08c379a000000000000000000000000000000000000000000000000000000000815260040161166b90612aa8565b60405180910390fd5b805181602001fd5b63150b7a0260e01b7bffffffffffffffffffffffffffffffffffffffffffffffffffffffff1916817bffffffffffffffffffffffffffffffffffffffffffffffffffffffff1916149150506116d1565b600190505b949350505050565b60606000821415611721576040518060400160405280600181526020017f30000000000000000000000000000000000000000000000000000000000000008152509050611835565b600082905060005b6000821461175357808061173c90612c3d565b915050600a8261174c9190612cb5565b9150611729565b60008167ffffffffffffffff81111561176f5761176e611dec565b5b6040519080825280601f01601f1916602001820160405280156117a15781602001600182028036833780820191505090505b5090505b6000851461182e576001826117ba91906128ae565b9150600a856117c99190612ce6565b60306117d591906128e2565b60f81b8183815181106117eb576117ea612d17565b5b60200101907effffffffffffffffffffffffffffffffffffffffffffffffffffffffffffff1916908160001a905350600a856118279190612cb5565b94506117a5565b8093505050505b919050565b600073ffffffffffffffffffffffffffffffffffffffff168273ffffffffffffffffffffffffffffffffffffffff1614156118aa576040517f08c379a00000000000000000000000000000000000000000000000000000000081526004016118a190612d92565b60405180910390fd5b6118b381610d3d565b156118f3576040517f08c379a00000000000000000000000000000000000000000000000000000000081526004016118ea90612dfe565b60405180910390fd5b6118ff600083836114ec565b6001600360008473ffffffffffffffffffffffffffffffffffffffff1673ffffffffffffffffffffffffffffffffffffffff168152602001908152602001600020600082825461194f91906128e2565b92505081905550816002600083815260200190815260200160002060006101000a81548173ffffffffffffffffffffffffffffffffffffffff021916908373ffffffffffffffffffffffffffffffffffffffff160217905550808273ffffffffffffffffffffffffffffffffffffffff16600073ffffffffffffffffffffffffffffffffffffffff167fddf252ad1be2c89b69c2b068fc378daa952ba7f163c4a11628f55a4df523b3ef60405160405180910390a4611a10600083836114f1565b5050565b6000808273ffffffffffffffffffffffffffffffffffffffff163b119050919050565b828054611a43906121b6565b90600052602060002090601f016020900481019282611a655760008555611aac565b82601f10611a7e57805160ff1916838001178555611aac565b82800160010185558215611aac579182015b82811115611aab578251825591602001919060010190611a90565b5b509050611ab99190611abd565b5090565b5b80821115611ad6576000816000905550600101611abe565b5090565b6000604051905090565b600080fd5b600080fd5b60007fffffffff0000000000000000000000000000000000000000000000000000000082169050919050565b611b2381611aee565b8114611b2e57600080fd5b50565b600081359050611b4081611b1a565b92915050565b600060208284031215611b5c57611b5b611ae4565b5b6000611b6a84828501611b31565b91505092915050565b60008115159050919050565b611b8881611b73565b82525050565b6000602082019050611ba36000830184611b7f565b92915050565b600081519050919050565b600082825260208201905092915050565b60005b83811015611be3578082015181840152602081019050611bc8565b83811115611bf2576000848401525b50505050565b6000601f19601f8301169050919050565b6000611c1482611ba9565b611c1e8185611bb4565b9350611c2e818560208601611bc5565b611c3781611bf8565b840191505092915050565b60006020820190508181036000830152611c5c8184611c09565b905092915050565b6000819050919050565b611c7781611c64565b8114611c8257600080fd5b50565b600081359050611c9481611c6e565b92915050565b600060208284031215611cb057611caf611ae4565b5b6000611cbe84828501611c85565b91505092915050565b600073ffffffffffffffffffffffffffffffffffffffff82169050919050565b6000611cf282611cc7565b9050919050565b611d0281611ce7565b82525050565b6000602082019050611d1d6000830184611cf9565b92915050565b611d2c81611ce7565b8114611d3757600080fd5b50565b600081359050611d4981611d23565b92915050565b60008060408385031215611d6657611d65611ae4565b5b6000611d7485828601611d3a565b9250506020611d8585828601611c85565b9150509250929050565b600080600060608486031215611da857611da7611ae4565b5b6000611db686828701611d3a565b9350506020611dc786828701611d3a565b9250506040611dd886828701611c85565b9150509250925092565b600080fd5b600080fd5b7f4e487b7100000000000000000000000000000000000000000000000000000000600052604160045260246000fd5b611e2482611bf8565b810181811067ffffffffffffffff82111715611e4357611e42611dec565b5b80604052505050565b6000611e56611ada565b9050611e628282611e1b565b919050565b600067ffffffffffffffff821115611e8257611e81611dec565b5b611e8b82611bf8565b9050602081019050919050565b82818337600083830152505050565b6000611eba611eb584611e67565b611e4c565b905082815260208101848484011115611ed657611ed5611de7565b5b611ee1848285611e98565b509392505050565b600082601f830112611efe57611efd611de2565b5b8135611f0e848260208601611ea7565b91505092915050565b600060208284031215611f2d57611f2c611ae4565b5b600082013567ffffffffffffffff811115611f4b57611f4a611ae9565b5b611f5784828501611ee9565b91505092915050565b611f6981611c64565b82525050565b6000602082019050611f846000830184611f60565b92915050565b600060208284031215611fa057611f9f611ae4565b5b6000611fae84828501611d3a565b91505092915050565b611fc081611b73565b8114611fcb57600080fd5b50565b600081359050611fdd81611fb7565b92915050565b60008060408385031215611ffa57611ff9611ae4565b5b600061200885828601611d3a565b925050602061201985828601611fce565b9150509250929050565b600067ffffffffffffffff82111561203e5761203d611dec565b5b61204782611bf8565b9050602081019050919050565b600061206761206284612023565b611e4c565b90508281526020810184848401111561208357612082611de7565b5b61208e848285611e98565b509392505050565b600082601f8301126120ab576120aa611de2565b5b81356120bb848260208601612054565b91505092915050565b600080600080608085870312156120de576120dd611ae4565b5b60006120ec87828801611d3a565b94505060206120fd87828801611d3a565b935050604061210e87828801611c85565b925050606085013567ffffffffffffffff81111561212f5761212e611ae9565b5b61213b87828801612096565b91505092959194509250565b6000806040838503121561215e5761215d611ae4565b5b600061216c85828601611d3a565b925050602061217d85828601611d3a565b9150509250929050565b7f4e487b7100000000000000000000000000000000000000000000000000000000600052602260045260246000fd5b600060028204905060018216806121ce57607f821691505b602082108114156121e2576121e1612187565b5b50919050565b7f4552433732313a20617070726f76656420717565727920666f72206e6f6e657860008201527f697374656e7420746f6b656e0000000000000000000000000000000000000000602082015250565b6000612244602c83611bb4565b915061224f826121e8565b604082019050919050565b6000602082019050818103600083015261227381612237565b9050919050565b7f4552433732313a20617070726f76616c20746f2063757272656e74206f776e6560008201527f7200000000000000000000000000000000000000000000000000000000000000602082015250565b60006122d6602183611bb4565b91506122e18261227a565b604082019050919050565b60006020820190508181036000830152612305816122c9565b9050919050565b7f4552433732313a20617070726f76652063616c6c6572206973206e6f74206f7760008201527f6e6572206e6f7220617070726f76656420666f7220616c6c0000000000000000602082015250565b6000612368603883611bb4565b91506123738261230c565b604082019050919050565b600060208201905081810360008301526123978161235b565b9050919050565b7f4552433732313a207472616e736665722063616c6c6572206973206e6f74206f60008201527f776e6572206e6f7220617070726f766564000000000000000000000000000000602082015250565b60006123fa603183611bb4565b91506124058261239e565b604082019050919050565b60006020820190508181036000830152612429816123ed565b9050919050565b7f746f6b656e55524c20616c726561647920657869737473000000000000000000600082015250565b6000612466601783611bb4565b915061247182612430565b602082019050919050565b6000602082019050818103600083015261249581612459565b9050919050565b600081905092915050565b60006124b282611ba9565b6124bc818561249c565b93506124cc818560208601611bc5565b80840191505092915050565b60006124e482846124a7565b915081905092915050565b7f4552433732313a206f776e657220717565727920666f72206e6f6e657869737460008201527f656e7420746f6b656e0000000000000000000000000000000000000000000000602082015250565b600061254b602983611bb4565b9150612556826124ef565b604082019050919050565b6000602082019050818103600083015261257a8161253e565b9050919050565b7f4552433732313a2062616c616e636520717565727920666f7220746865207a6560008201527f726f206164647265737300000000000000000000000000000000000000000000602082015250565b60006125dd602a83611bb4565b91506125e882612581565b604082019050919050565b6000602082019050818103600083015261260c816125d0565b9050919050565b7f45524337323155524953746f726167653a2055524920717565727920666f722060008201527f6e6f6e6578697374656e7420746f6b656e000000000000000000000000000000602082015250565b600061266f603183611bb4565b915061267a82612613565b604082019050919050565b6000602082019050818103600083015261269e81612662565b9050919050565b60006126b182856124a7565b91506126bd82846124a7565b91508190509392505050565b7f4552433732313a206f70657261746f7220717565727920666f72206e6f6e657860008201527f697374656e7420746f6b656e0000000000000000000000000000000000000000602082015250565b6000612725602c83611bb4565b9150612730826126c9565b604082019050919050565b6000602082019050818103600083015261275481612718565b9050919050565b7f4552433732313a207472616e736665722066726f6d20696e636f72726563742060008201527f6f776e6572000000000000000000000000000000000000000000000000000000602082015250565b60006127b7602583611bb4565b91506127c28261275b565b604082019050919050565b600060208201905081810360008301526127e6816127aa565b9050919050565b7f4552433732313a207472616e7366657220746f20746865207a65726f2061646460008201527f7265737300000000000000000000000000000000000000000000000000000000602082015250565b6000612849602483611bb4565b9150612854826127ed565b604082019050919050565b600060208201905081810360008301526128788161283c565b9050919050565b7f4e487b7100000000000000000000000000000000000000000000000000000000600052601160045260246000fd5b60006128b982611c64565b91506128c483611c64565b9250828210156128d7576128d661287f565b5b828203905092915050565b60006128ed82611c64565b91506128f883611c64565b9250827fffffffffffffffffffffffffffffffffffffffffffffffffffffffffffffffff0382111561292d5761292c61287f565b5b828201905092915050565b7f45524337323155524953746f726167653a2055524920736574206f66206e6f6e60008201527f6578697374656e7420746f6b656e000000000000000000000000000000000000602082015250565b6000612994602e83611bb4565b915061299f82612938565b604082019050919050565b600060208201905081810360008301526129c381612987565b9050919050565b7f4552433732313a20617070726f766520746f2063616c6c657200000000000000600082015250565b6000612a00601983611bb4565b9150612a0b826129ca565b602082019050919050565b60006020820190508181036000830152612a2f816129f3565b9050919050565b7f4552433732313a207472616e7366657220746f206e6f6e20455243373231526560008201527f63656976657220696d706c656d656e7465720000000000000000000000000000602082015250565b6000612a92603283611bb4565b9150612a9d82612a36565b604082019050919050565b60006020820190508181036000830152612ac181612a85565b9050919050565b7f4552433732314d657461646174613a2055524920717565727920666f72206e6f60008201527f6e6578697374656e7420746f6b656e0000000000000000000000000000000000602082015250565b6000612b24602f83611bb4565b9150612b2f82612ac8565b604082019050919050565b60006020820190508181036000830152612b5381612b17565b9050919050565b600081519050919050565b600082825260208201905092915050565b6000612b8182612b5a565b612b8b8185612b65565b9350612b9b818560208601611bc5565b612ba481611bf8565b840191505092915050565b6000608082019050612bc46000830187611cf9565b612bd16020830186611cf9565b612bde6040830185611f60565b8181036060830152612bf08184612b76565b905095945050505050565b600081519050612c0a81611b1a565b92915050565b600060208284031215612c2657612c25611ae4565b5b6000612c3484828501612bfb565b91505092915050565b6000612c4882611c64565b91507fffffffffffffffffffffffffffffffffffffffffffffffffffffffffffffffff821415612c7b57612c7a61287f565b5b600182019050919050565b7f4e487b7100000000000000000000000000000000000000000000000000000000600052601260045260246000fd5b6000612cc082611c64565b9150612ccb83611c64565b925082612cdb57612cda612c86565b5b828204905092915050565b6000612cf182611c64565b9150612cfc83611c64565b925082612d0c57612d0b612c86565b5b828206905092915050565b7f4e487b7100000000000000000000000000000000000000000000000000000000600052603260045260246000fd5b7f4552433732313a206d696e7420746f20746865207a65726f2061646472657373600082015250565b6000612d7c602083611bb4565b9150612d8782612d46565b602082019050919050565b60006020820190508181036000830152612dab81612d6f565b9050919050565b7f4552433732313a20746f6b656e20616c7265616479206d696e74656400000000600082015250565b6000612de8601c83611bb4565b9150612df382612db2565b602082019050919050565b60006020820190508181036000830152612e1781612ddb565b905091905056fea2646970667358221220739b004549fdd4a975e88def05d162353694deeeec66d27be129c10eca5ce64864736f6c634300080b0033",
  "immutableReferences": {},
  "source": "// SPDX-License-Identifier: MIT\r\npragma solidity >=0.4.22 <0.9.0;\r\n\r\nimport \"@openzeppelin/contracts/token/ERC721/extensions/ERC721URIStorage.sol\";\r\nimport \"@openzeppelin/contracts/utils/Counters.sol\";\r\n\r\ncontract EthMarket is ERC721URIStorage {\r\n    using Counters for Counters.Counter;\r\n    Counters.Counter private _listedItems;\r\n    Counters.Counter private _tokenIds;\r\n\r\n    mapping(string => bool) private _usedTokenURIs;\r\n\r\n    constructor() ERC721(\"EthItems\", \"EITM\") {}\r\n\r\n    function mintToken(string memory tokenURI)\r\n        public\r\n        payable\r\n        returns (uint256)\r\n    {\r\n        require(!tokenURIExists(tokenURI), \"tokenURL already exists\");\r\n\r\n        _tokenIds.increment();\r\n        _listedItems.increment();\r\n\r\n        uint256 newTokenId = _tokenIds.current();\r\n\r\n        _safeMint(msg.sender, newTokenId);\r\n        _setTokenURI(newTokenId, tokenURI);\r\n        _usedTokenURIs[tokenURI] = true;\r\n\r\n        return newTokenId;\r\n    }\r\n\r\n    function tokenURIExists(string memory tokenURI) public view returns (bool) {\r\n        return _usedTokenURIs[tokenURI] == true;\r\n    }\r\n}\r\n",
  "sourcePath": "C:\\Users\\Sambit\\Personal Projects\\web3.0\\marketplace\\eth-marketplace\\contracts\\EthMarket.sol",
  "compiler": {
    "name": "solc",
    "version": "0.8.11+commit.d7f03943.Emscripten.clang"
  },
  "schemaVersion": "3.4.4",
  "updatedAt": "2022-08-14T08:54:36.585Z",
  "networkType": "ethereum",
  "devdoc": {
    "kind": "dev",
    "methods": {
      "approve(address,uint256)": {
        "details": "See {IERC721-approve}."
      },
      "balanceOf(address)": {
        "details": "See {IERC721-balanceOf}."
      },
      "getApproved(uint256)": {
        "details": "See {IERC721-getApproved}."
      },
      "isApprovedForAll(address,address)": {
        "details": "See {IERC721-isApprovedForAll}."
      },
      "name()": {
        "details": "See {IERC721Metadata-name}."
      },
      "ownerOf(uint256)": {
        "details": "See {IERC721-ownerOf}."
      },
      "safeTransferFrom(address,address,uint256)": {
        "details": "See {IERC721-safeTransferFrom}."
      },
      "safeTransferFrom(address,address,uint256,bytes)": {
        "details": "See {IERC721-safeTransferFrom}."
      },
      "setApprovalForAll(address,bool)": {
        "details": "See {IERC721-setApprovalForAll}."
      },
      "supportsInterface(bytes4)": {
        "details": "See {IERC165-supportsInterface}."
      },
      "symbol()": {
        "details": "See {IERC721Metadata-symbol}."
      },
      "tokenURI(uint256)": {
        "details": "See {IERC721Metadata-tokenURI}."
      },
      "transferFrom(address,address,uint256)": {
        "details": "See {IERC721-transferFrom}."
      }
    },
    "version": 1
  },
  "userdoc": {
    "kind": "user",
    "methods": {},
    "version": 1
  }
}